:10000000011122CE001095472326F4FEF947232440
:10001000F4FE0327C4FE832784FEBA972322F4FE4E
:1000200081473E8572440561828000001000000017
:1000300000000000037A5200017C01011B0C020049
:100040002000000018000000B8FFFFFF2A00000099
:1000500000420E20428801420C080060C80C0220B9
:10006000420E00004743433A202867633839316421
:10007000386463323365292031332E322E3000410B
:1000800065000000726973637600015B0000000484
:10009000100572763332693270315F6D3270305FC5
:1000A000613270315F663270325F643270325F632A
:1000B0003270305F7A696373723270305F7A69666A
:1000C000656E6365693270305F7A6D6D756C317025
:1000D000305F7A61616D6F3170305F7A616C72731D
:0500E0006331703000E7
:00000001FF
