:020000021000EC
:100174002F6C69622F6C642D6C696E75782D7269B1
:1001840073637633322D696C703332642E736F2E41
:02019400310038
:10019800040000001000000001000000474E550058
:1001A800000000000500000004000000000000003E
:1001B8000100000003000000020000000000000031
:0801C80000000000010000002E
:1001D0000200000001000000010000000500000016
:1001E0000040030101000000000000002E4E3DF61B
:0401F000197E0A87E3
:1001F40000000000000000000000000000000000FB
:1002040001000000B0020100000000001200000024
:100214002800000004280100000000001000F1FF85
:10022400005F5F6C6962635F73746172745F6D61B8
:10023400696E006C6962632E736F2E3600474C49F9
:1002440042435F322E3334005F5F676C6F62616CD0
:0A0254005F706F696E74657224001C
:06025E0000000200010097
:100264000100010013000000100000000000000065
:10027400B4919606000002001D000000000000007A
:0C02840000200100050100000000000047
:10029000972300003303C34103AE83D6130343FD0A
:1002A000938283D61353230083A2420067000E007B
:1002B000172E0000032E0ED567030E00130000005A
:1002C0000520AA87170500001305A50182455000E7
:1002D000137101FF814601470A88D93F02909DA80A
:1002E000972100009381415282800000496549674F
:1002F00093074500130747006308F70093070000C2
:1003000081C71305450082878280496593074500B0
:100310004967930547009D8D93D72540FD81BE9584
:10032000858599C59307000081C71305450082871D
:100330008280411122C449648347840006C689E74C
:10034000753785472304F400B2402244410182807E
:100350006DBF0000130101FE232E81001304010272
:10036000930750002326F4FE9307E0012324F4FEB4
:100370000327C4FE832784FEB307F7002322F4FE7D
:10038000832744FE138507000324C10113010102E2
:040390006780000082
:040394000100020062
:10039800011B033B380000000600000028FFFFFF98
:1003A8005000000054FFFFFF6400000072FFFFFFD1
:1003B800780000009AFFFFFF8C000000B8FFFFFFE5
:0C03C800B0000000BCFFFFFFC4000000FC
:1003D4001000000000000000037A5200017C0101BB
:1003E4001B0C02001000000018000000D0FEFFFFEC
:1003F4001E00000000070100100000002C00000097
:10040400E8FEFFFF1E0000000000000010000000D6
:1004140040000000F2FEFFFF280000000000000082
:10042400200000005400000006FFFFFF1E00000033
:1004340000420E104288024881014CC142C8420E5B
:1004440000000000100000007800000000FFFFFF23
:100454000200000000000000200000008C000000EA
:10046400F0FEFFFF4000000000440E2044880144D9
:100474000C08006CC80C0220440E000000000000B0
:041EF800E002010003
:041EFC00500301008E
:041F000032030100A7
:101F0400010000001300000020000000F81E010082
:101F1400210000000400000019000000FC1E010064
:101F24001B000000040000001A000000001F010054
:101F34001C0000000400000004000000B8010100BF
:101F4400F5FEFF6FD001010005000000240201002E
:101F540006000000F40101000A0000003A0000003D
:101F64000B0000001000000015000000000000003D
:101F740003000000F81F0100020000000C00000034
:101F84001400000007000000170000008402010094
:101F94000700000084020100080000000C0000009B
:101FA400090000000C000000FEFFFF6F6402010046
:101FB400FFFFFF6F01000000F0FFFF6F5E020100F2
:101FC400000000000000000000000000000000000D
:101FD40000000000000000000000000000000000FD
:101FE40000000000000000000000000000000000ED
:041FF400041F0100C5
:0C1FF800FFFFFFFF00000000900201004E
:0420040000000000D8
:04000003100002C027
:00000001FF
